{
  "contractName": "Secret",
  "abi": [
    {
      "inputs": [],
      "stateMutability": "nonpayable",
      "type": "constructor"
    },
    {
      "anonymous": false,
      "inputs": [
        {
          "indexed": true,
          "internalType": "address",
          "name": "owner",
          "type": "address"
        },
        {
          "indexed": true,
          "internalType": "address",
          "name": "spender",
          "type": "address"
        },
        {
          "indexed": false,
          "internalType": "uint256",
          "name": "value",
          "type": "uint256"
        }
      ],
      "name": "Approval",
      "type": "event"
    },
    {
      "anonymous": false,
      "inputs": [
        {
          "indexed": false,
          "internalType": "string",
          "name": "",
          "type": "string"
        }
      ],
      "name": "Log",
      "type": "event"
    },
    {
      "anonymous": false,
      "inputs": [
        {
          "indexed": false,
          "internalType": "uint256",
          "name": "",
          "type": "uint256"
        }
      ],
      "name": "Log",
      "type": "event"
    },
    {
      "anonymous": false,
      "inputs": [
        {
          "indexed": false,
          "internalType": "address",
          "name": "",
          "type": "address"
        }
      ],
      "name": "Log",
      "type": "event"
    },
    {
      "anonymous": false,
      "inputs": [
        {
          "indexed": true,
          "internalType": "address",
          "name": "from",
          "type": "address"
        },
        {
          "indexed": true,
          "internalType": "address",
          "name": "to",
          "type": "address"
        },
        {
          "indexed": false,
          "internalType": "uint256",
          "name": "value",
          "type": "uint256"
        }
      ],
      "name": "Transfer",
      "type": "event"
    },
    {
      "inputs": [],
      "name": "DOMAIN_SEPARATOR",
      "outputs": [
        {
          "internalType": "bytes32",
          "name": "",
          "type": "bytes32"
        }
      ],
      "stateMutability": "view",
      "type": "function",
      "constant": true
    },
    {
      "inputs": [],
      "name": "PERMIT_TYPEHASH",
      "outputs": [
        {
          "internalType": "bytes32",
          "name": "",
          "type": "bytes32"
        }
      ],
      "stateMutability": "view",
      "type": "function",
      "constant": true
    },
    {
      "inputs": [
        {
          "internalType": "address",
          "name": "",
          "type": "address"
        },
        {
          "internalType": "address",
          "name": "",
          "type": "address"
        }
      ],
      "name": "_allowances",
      "outputs": [
        {
          "internalType": "uint256",
          "name": "",
          "type": "uint256"
        }
      ],
      "stateMutability": "view",
      "type": "function",
      "constant": true
    },
    {
      "inputs": [
        {
          "internalType": "address",
          "name": "owner",
          "type": "address"
        },
        {
          "internalType": "address",
          "name": "spender",
          "type": "address"
        }
      ],
      "name": "allowance",
      "outputs": [
        {
          "internalType": "uint256",
          "name": "",
          "type": "uint256"
        }
      ],
      "stateMutability": "view",
      "type": "function",
      "constant": true
    },
    {
      "inputs": [
        {
          "internalType": "address",
          "name": "spender",
          "type": "address"
        },
        {
          "internalType": "uint256",
          "name": "amount",
          "type": "uint256"
        }
      ],
      "name": "approve",
      "outputs": [
        {
          "internalType": "bool",
          "name": "",
          "type": "bool"
        }
      ],
      "stateMutability": "nonpayable",
      "type": "function"
    },
    {
      "inputs": [
        {
          "internalType": "address",
          "name": "account",
          "type": "address"
        }
      ],
      "name": "balanceOf",
      "outputs": [
        {
          "internalType": "uint256",
          "name": "",
          "type": "uint256"
        }
      ],
      "stateMutability": "view",
      "type": "function",
      "constant": true
    },
    {
      "inputs": [],
      "name": "decimals",
      "outputs": [
        {
          "internalType": "uint8",
          "name": "",
          "type": "uint8"
        }
      ],
      "stateMutability": "view",
      "type": "function",
      "constant": true
    },
    {
      "inputs": [
        {
          "internalType": "address",
          "name": "spender",
          "type": "address"
        },
        {
          "internalType": "uint256",
          "name": "subtractedValue",
          "type": "uint256"
        }
      ],
      "name": "decreaseAllowance",
      "outputs": [
        {
          "internalType": "bool",
          "name": "",
          "type": "bool"
        }
      ],
      "stateMutability": "nonpayable",
      "type": "function"
    },
    {
      "inputs": [
        {
          "internalType": "address",
          "name": "spender",
          "type": "address"
        },
        {
          "internalType": "uint256",
          "name": "addedValue",
          "type": "uint256"
        }
      ],
      "name": "increaseAllowance",
      "outputs": [
        {
          "internalType": "bool",
          "name": "",
          "type": "bool"
        }
      ],
      "stateMutability": "nonpayable",
      "type": "function"
    },
    {
      "inputs": [],
      "name": "name",
      "outputs": [
        {
          "internalType": "string",
          "name": "",
          "type": "string"
        }
      ],
      "stateMutability": "view",
      "type": "function",
      "constant": true
    },
    {
      "inputs": [
        {
          "internalType": "address",
          "name": "",
          "type": "address"
        }
      ],
      "name": "nonces",
      "outputs": [
        {
          "internalType": "uint256",
          "name": "",
          "type": "uint256"
        }
      ],
      "stateMutability": "view",
      "type": "function",
      "constant": true
    },
    {
      "inputs": [
        {
          "internalType": "address",
          "name": "owner",
          "type": "address"
        },
        {
          "internalType": "address",
          "name": "spender",
          "type": "address"
        },
        {
          "internalType": "uint256",
          "name": "amount",
          "type": "uint256"
        },
        {
          "internalType": "uint256",
          "name": "deadline",
          "type": "uint256"
        },
        {
          "internalType": "uint8",
          "name": "v",
          "type": "uint8"
        },
        {
          "internalType": "bytes32",
          "name": "r",
          "type": "bytes32"
        },
        {
          "internalType": "bytes32",
          "name": "s",
          "type": "bytes32"
        }
      ],
      "name": "permit",
      "outputs": [],
      "stateMutability": "nonpayable",
      "type": "function"
    },
    {
      "inputs": [],
      "name": "symbol",
      "outputs": [
        {
          "internalType": "string",
          "name": "",
          "type": "string"
        }
      ],
      "stateMutability": "view",
      "type": "function",
      "constant": true
    },
    {
      "inputs": [],
      "name": "totalSupply",
      "outputs": [
        {
          "internalType": "uint256",
          "name": "",
          "type": "uint256"
        }
      ],
      "stateMutability": "view",
      "type": "function",
      "constant": true
    },
    {
      "inputs": [
        {
          "internalType": "address",
          "name": "to",
          "type": "address"
        },
        {
          "internalType": "uint256",
          "name": "amount",
          "type": "uint256"
        }
      ],
      "name": "transfer",
      "outputs": [
        {
          "internalType": "bool",
          "name": "",
          "type": "bool"
        }
      ],
      "stateMutability": "nonpayable",
      "type": "function"
    },
    {
      "inputs": [
        {
          "internalType": "address",
          "name": "from",
          "type": "address"
        },
        {
          "internalType": "address",
          "name": "to",
          "type": "address"
        },
        {
          "internalType": "uint256",
          "name": "amount",
          "type": "uint256"
        }
      ],
      "name": "transferFrom",
      "outputs": [
        {
          "internalType": "bool",
          "name": "",
          "type": "bool"
        }
      ],
      "stateMutability": "nonpayable",
      "type": "function"
    },
    {
      "inputs": [
        {
          "internalType": "uint256",
          "name": "amount",
          "type": "uint256"
        }
      ],
      "name": "burn",
      "outputs": [],
      "stateMutability": "nonpayable",
      "type": "function"
    }
  ],
  "bytecode": "0x60c06040527f6e71edae12b1b97f4d1f60370fef10105fa2faae0126114a169c64845d6126c960a0908152503480156200003857600080fd5b506040518060400160405280600a81526020017f536563726574436f696e000000000000000000000000000000000000000000008152506040518060400160405280600a81526020017f536563726574436f696e0000000000000000000000000000000000000000000081525081818160039080519060200190620000bf9291906200031f565b508060049080519060200190620000d89291906200031f565b5050507f8b73c3c69bb8fe3d512ecc4cf759cc79239f7b179b0ffacaa9a75d522b39400f82805190602001206040518060400160405280600181526020017f310000000000000000000000000000000000000000000000000000000000000081525080519060200120610539306040516020016200015b95949392919062000455565b60405160208183030381529060405280519060200120608081815250505050620001963369152d02c7e14af68000006200019c60201b60201c565b6200065d565b600073ffffffffffffffffffffffffffffffffffffffff168273ffffffffffffffffffffffffffffffffffffffff1614156200020f576040517f08c379a00000000000000000000000000000000000000000000000000000000081526004016200020690620004b2565b60405180910390fd5b62000223600083836200031560201b60201c565b806002600082825462000237919062000502565b92505081905550806000808473ffffffffffffffffffffffffffffffffffffffff1673ffffffffffffffffffffffffffffffffffffffff16815260200190815260200160002060008282546200028e919062000502565b925050819055508173ffffffffffffffffffffffffffffffffffffffff16600073ffffffffffffffffffffffffffffffffffffffff167fddf252ad1be2c89b69c2b068fc378daa952ba7f163c4a11628f55a4df523b3ef83604051620002f59190620004d4565b60405180910390a362000311600083836200031a60201b60201c565b5050565b505050565b505050565b8280546200032d90620005c9565b90600052602060002090601f0160209004810192826200035157600085556200039d565b82601f106200036c57805160ff19168380011785556200039d565b828001600101855582156200039d579182015b828111156200039c5782518255916020019190600101906200037f565b5b509050620003ac9190620003b0565b5090565b5b80821115620003cb576000816000905550600101620003b1565b5090565b620003da816200055f565b82525050565b620003eb8162000573565b82525050565b620003fc81620005b5565b82525050565b600062000411601f83620004f1565b91507f45524332303a206d696e7420746f20746865207a65726f2061646472657373006000830152602082019050919050565b6200044f81620005ab565b82525050565b600060a0820190506200046c6000830188620003e0565b6200047b6020830187620003e0565b6200048a6040830186620003e0565b620004996060830185620003f1565b620004a86080830184620003cf565b9695505050505050565b60006020820190508181036000830152620004cd8162000402565b9050919050565b6000602082019050620004eb600083018462000444565b92915050565b600082825260208201905092915050565b60006200050f82620005ab565b91506200051c83620005ab565b9250827fffffffffffffffffffffffffffffffffffffffffffffffffffffffffffffffff03821115620005545762000553620005ff565b5b828201905092915050565b60006200056c826200058b565b9050919050565b6000819050919050565b600061ffff82169050919050565b600073ffffffffffffffffffffffffffffffffffffffff82169050919050565b6000819050919050565b6000620005c2826200057d565b9050919050565b60006002820490506001821680620005e257607f821691505b60208210811415620005f957620005f86200062e565b5b50919050565b7f4e487b7100000000000000000000000000000000000000000000000000000000600052601160045260246000fd5b7f4e487b7100000000000000000000000000000000000000000000000000000000600052602260045260246000fd5b60805160a051611d2162000691600039600081816104c101526107270152600081816104ee015261077d0152611d216000f3fe608060405234801561001057600080fd5b506004361061010b5760003560e01c806339509351116100a257806395d89b411161007157806395d89b41146102e2578063a457c2d714610300578063a9059cbb14610330578063d505accf14610360578063dd62ed3e1461037c5761010b565b8063395093511461023657806342966c681461026657806370a08231146102825780637ecebe00146102b25761010b565b806323b872dd116100de57806323b872dd146101ac57806330adf81f146101dc578063313ce567146101fa5780633644e515146102185761010b565b8063024c2ddd1461011057806306fdde0314610140578063095ea7b31461015e57806318160ddd1461018e575b600080fd5b61012a60048036038101906101259190611141565b6103ac565b6040516101379190611a59565b60405180910390f35b6101486103d1565b60405161015591906118d7565b60405180910390f35b6101786004803603810190610173919061126a565b610463565b60405161018591906117fb565b60405180910390f35b610196610486565b6040516101a39190611a59565b60405180910390f35b6101c660048036038101906101c1919061117d565b610490565b6040516101d391906117fb565b60405180910390f35b6101e46104bf565b6040516101f19190611816565b60405180910390f35b6102026104e3565b60405161020f9190611a74565b60405180910390f35b6102206104ec565b60405161022d9190611816565b60405180910390f35b610250600480360381019061024b919061126a565b610510565b60405161025d91906117fb565b60405180910390f35b610280600480360381019061027b91906112a6565b610547565b005b61029c60048036038101906102979190611118565b610554565b6040516102a99190611a59565b60405180910390f35b6102cc60048036038101906102c79190611118565b61059c565b6040516102d99190611a59565b60405180910390f35b6102ea6105b4565b6040516102f791906118d7565b60405180910390f35b61031a6004803603810190610315919061126a565b610646565b60405161032791906117fb565b60405180910390f35b61034a6004803603810190610345919061126a565b6106bd565b60405161035791906117fb565b60405180910390f35b61037a600480360381019061037591906111cc565b6106e0565b005b61039660048036038101906103919190611141565b6108d7565b6040516103a39190611a59565b60405180910390f35b6001602052816000526040600020602052806000526040600020600091509150505481565b6060600380546103e090611be4565b80601f016020809104026020016040519081016040528092919081815260200182805461040c90611be4565b80156104595780601f1061042e57610100808354040283529160200191610459565b820191906000526020600020905b81548152906001019060200180831161043c57829003601f168201915b5050505050905090565b60008061046e61095e565b905061047b818585610966565b600191505092915050565b6000600254905090565b60008061049b61095e565b90506104a8858285610bd6565b6104b3858585610c62565b60019150509392505050565b7f000000000000000000000000000000000000000000000000000000000000000081565b60006012905090565b7f000000000000000000000000000000000000000000000000000000000000000081565b60008061051b61095e565b905061053c81858561052d85896108d7565b6105379190611ab6565b610966565b600191505092915050565b6105513382610ee3565b50565b60008060008373ffffffffffffffffffffffffffffffffffffffff1673ffffffffffffffffffffffffffffffffffffffff168152602001908152602001600020549050919050565b60056020528060005260406000206000915090505481565b6060600480546105c390611be4565b80601f01602080910402602001604051908101604052809291908181526020018280546105ef90611be4565b801561063c5780601f106106115761010080835404028352916020019161063c565b820191906000526020600020905b81548152906001019060200180831161061f57829003601f168201915b5050505050905090565b60008061065161095e565b9050600061065f82866108d7565b9050838110156106a4576040517f08c379a000000000000000000000000000000000000000000000000000000000815260040161069b90611a39565b60405180910390fd5b6106b18286868403610966565b60019250505092915050565b6000806106c861095e565b90506106d5818585610c62565b600191505092915050565b42841015610723576040517f08c379a000000000000000000000000000000000000000000000000000000000815260040161071a90611979565b60405180910390fd5b60007f000000000000000000000000000000000000000000000000000000000000000088888860008960405160200161076196959493929190611831565b60405160208183030381529060405280519060200120905060007f0000000000000000000000000000000000000000000000000000000000000000826040516020016107ae9291906117a9565b6040516020818303038152906040528051906020012090506000600182878787604051600081526020016040526040516107eb9493929190611892565b6020604051602081039080840390855afa15801561080d573d6000803e3d6000fd5b505050602060405103519050600073ffffffffffffffffffffffffffffffffffffffff168173ffffffffffffffffffffffffffffffffffffffff161415801561088157508973ffffffffffffffffffffffffffffffffffffffff168173ffffffffffffffffffffffffffffffffffffffff16145b6108c0576040517f08c379a00000000000000000000000000000000000000000000000000000000081526004016108b7906119b9565b60405180910390fd5b6108cb8a8a8a610966565b50505050505050505050565b6000600160008473ffffffffffffffffffffffffffffffffffffffff1673ffffffffffffffffffffffffffffffffffffffff16815260200190815260200160002060008373ffffffffffffffffffffffffffffffffffffffff1673ffffffffffffffffffffffffffffffffffffffff16815260200190815260200160002054905092915050565b600033905090565b600073ffffffffffffffffffffffffffffffffffffffff168373ffffffffffffffffffffffffffffffffffffffff1614156109d6576040517f08c379a00000000000000000000000000000000000000000000000000000000081526004016109cd90611a19565b60405180910390fd5b600073ffffffffffffffffffffffffffffffffffffffff168273ffffffffffffffffffffffffffffffffffffffff161415610a46576040517f08c379a0000000000000000000000000000000000000000000000000000000008152600401610a3d90611939565b60405180910390fd5b7f909c57d5c6ac08245cf2a6de3900e2b868513fa59099b92b27d8db823d92df9c81604051610a759190611a59565b60405180910390a17fb8a00d6d8ca1be30bfec34d8f97e55f0f0fd9eeb7fb46e030516363d4cfe1ad683604051610aac91906117e0565b60405180910390a17fb8a00d6d8ca1be30bfec34d8f97e55f0f0fd9eeb7fb46e030516363d4cfe1ad682604051610ae391906117e0565b60405180910390a180600160008573ffffffffffffffffffffffffffffffffffffffff1673ffffffffffffffffffffffffffffffffffffffff16815260200190815260200160002060008473ffffffffffffffffffffffffffffffffffffffff1673ffffffffffffffffffffffffffffffffffffffff168152602001908152602001600020819055508173ffffffffffffffffffffffffffffffffffffffff168373ffffffffffffffffffffffffffffffffffffffff167f8c5be1e5ebec7d5bd14f71427d1e84f3dd0314c0f7b2291e5b200ac8c7c3b92583604051610bc99190611a59565b60405180910390a3505050565b6000610be284846108d7565b90507fffffffffffffffffffffffffffffffffffffffffffffffffffffffffffffffff8114610c5c5781811015610c4e576040517f08c379a0000000000000000000000000000000000000000000000000000000008152600401610c4590611959565b60405180910390fd5b610c5b8484848403610966565b5b50505050565b600073ffffffffffffffffffffffffffffffffffffffff168373ffffffffffffffffffffffffffffffffffffffff161415610cd2576040517f08c379a0000000000000000000000000000000000000000000000000000000008152600401610cc9906119f9565b60405180910390fd5b600073ffffffffffffffffffffffffffffffffffffffff168273ffffffffffffffffffffffffffffffffffffffff161415610d42576040517f08c379a0000000000000000000000000000000000000000000000000000000008152600401610d39906118f9565b60405180910390fd5b610d4d8383836110ba565b60008060008573ffffffffffffffffffffffffffffffffffffffff1673ffffffffffffffffffffffffffffffffffffffff16815260200190815260200160002054905081811015610dd3576040517f08c379a0000000000000000000000000000000000000000000000000000000008152600401610dca90611999565b60405180910390fd5b8181036000808673ffffffffffffffffffffffffffffffffffffffff1673ffffffffffffffffffffffffffffffffffffffff16815260200190815260200160002081905550816000808573ffffffffffffffffffffffffffffffffffffffff1673ffffffffffffffffffffffffffffffffffffffff1681526020019081526020016000206000828254610e669190611ab6565b925050819055508273ffffffffffffffffffffffffffffffffffffffff168473ffffffffffffffffffffffffffffffffffffffff167fddf252ad1be2c89b69c2b068fc378daa952ba7f163c4a11628f55a4df523b3ef84604051610eca9190611a59565b60405180910390a3610edd8484846110bf565b50505050565b600073ffffffffffffffffffffffffffffffffffffffff168273ffffffffffffffffffffffffffffffffffffffff161415610f53576040517f08c379a0000000000000000000000000000000000000000000000000000000008152600401610f4a906119d9565b60405180910390fd5b610f5f826000836110ba565b60008060008473ffffffffffffffffffffffffffffffffffffffff1673ffffffffffffffffffffffffffffffffffffffff16815260200190815260200160002054905081811015610fe5576040517f08c379a0000000000000000000000000000000000000000000000000000000008152600401610fdc90611919565b60405180910390fd5b8181036000808573ffffffffffffffffffffffffffffffffffffffff1673ffffffffffffffffffffffffffffffffffffffff16815260200190815260200160002081905550816002600082825461103c9190611b0c565b92505081905550600073ffffffffffffffffffffffffffffffffffffffff168373ffffffffffffffffffffffffffffffffffffffff167fddf252ad1be2c89b69c2b068fc378daa952ba7f163c4a11628f55a4df523b3ef846040516110a19190611a59565b60405180910390a36110b5836000846110bf565b505050565b505050565b505050565b6000813590506110d381611c8f565b92915050565b6000813590506110e881611ca6565b92915050565b6000813590506110fd81611cbd565b92915050565b60008135905061111281611cd4565b92915050565b60006020828403121561112a57600080fd5b6000611138848285016110c4565b91505092915050565b6000806040838503121561115457600080fd5b6000611162858286016110c4565b9250506020611173858286016110c4565b9150509250929050565b60008060006060848603121561119257600080fd5b60006111a0868287016110c4565b93505060206111b1868287016110c4565b92505060406111c2868287016110ee565b9150509250925092565b600080600080600080600060e0888a0312156111e757600080fd5b60006111f58a828b016110c4565b97505060206112068a828b016110c4565b96505060406112178a828b016110ee565b95505060606112288a828b016110ee565b94505060806112398a828b01611103565b93505060a061124a8a828b016110d9565b92505060c061125b8a828b016110d9565b91505092959891949750929550565b6000806040838503121561127d57600080fd5b600061128b858286016110c4565b925050602061129c858286016110ee565b9150509250929050565b6000602082840312156112b857600080fd5b60006112c6848285016110ee565b91505092915050565b6112d881611b40565b82525050565b6112e781611b52565b82525050565b6112f681611b5e565b82525050565b61130d61130882611b5e565b611c16565b82525050565b61131c81611b9f565b82525050565b600061132d82611a8f565b6113378185611a9a565b9350611347818560208601611bb1565b61135081611c7e565b840191505092915050565b6000611368602383611a9a565b91507f45524332303a207472616e7366657220746f20746865207a65726f206164647260008301527f65737300000000000000000000000000000000000000000000000000000000006020830152604082019050919050565b60006113ce602283611a9a565b91507f45524332303a206275726e20616d6f756e7420657863656564732062616c616e60008301527f63650000000000000000000000000000000000000000000000000000000000006020830152604082019050919050565b6000611434602283611a9a565b91507f45524332303a20617070726f766520746f20746865207a65726f20616464726560008301527f73730000000000000000000000000000000000000000000000000000000000006020830152604082019050919050565b600061149a600283611aab565b91507f19010000000000000000000000000000000000000000000000000000000000006000830152600282019050919050565b60006114da601d83611a9a565b91507f45524332303a20696e73756666696369656e7420616c6c6f77616e63650000006000830152602082019050919050565b600061151a601d83611a9a565b91507f45524332305065726d69743a206578706972656420646561646c696e650000006000830152602082019050919050565b600061155a602683611a9a565b91507f45524332303a207472616e7366657220616d6f756e742065786365656473206260008301527f616c616e636500000000000000000000000000000000000000000000000000006020830152604082019050919050565b60006115c0601e83611a9a565b91507f45524332305065726d69743a20696e76616c6964207369676e617475726500006000830152602082019050919050565b6000611600602183611a9a565b91507f45524332303a206275726e2066726f6d20746865207a65726f2061646472657360008301527f73000000000000000000000000000000000000000000000000000000000000006020830152604082019050919050565b6000611666602583611a9a565b91507f45524332303a207472616e736665722066726f6d20746865207a65726f20616460008301527f64726573730000000000000000000000000000000000000000000000000000006020830152604082019050919050565b60006116cc602483611a9a565b91507f45524332303a20617070726f76652066726f6d20746865207a65726f2061646460008301527f72657373000000000000000000000000000000000000000000000000000000006020830152604082019050919050565b6000611732602583611a9a565b91507f45524332303a2064656372656173656420616c6c6f77616e63652062656c6f7760008301527f207a65726f0000000000000000000000000000000000000000000000000000006020830152604082019050919050565b61179481611b88565b82525050565b6117a381611b92565b82525050565b60006117b48261148d565b91506117c082856112fc565b6020820191506117d082846112fc565b6020820191508190509392505050565b60006020820190506117f560008301846112cf565b92915050565b600060208201905061181060008301846112de565b92915050565b600060208201905061182b60008301846112ed565b92915050565b600060c08201905061184660008301896112ed565b61185360208301886112cf565b61186060408301876112cf565b61186d606083018661178b565b61187a6080830185611313565b61188760a083018461178b565b979650505050505050565b60006080820190506118a760008301876112ed565b6118b4602083018661179a565b6118c160408301856112ed565b6118ce60608301846112ed565b95945050505050565b600060208201905081810360008301526118f18184611322565b905092915050565b600060208201905081810360008301526119128161135b565b9050919050565b60006020820190508181036000830152611932816113c1565b9050919050565b6000602082019050818103600083015261195281611427565b9050919050565b60006020820190508181036000830152611972816114cd565b9050919050565b600060208201905081810360008301526119928161150d565b9050919050565b600060208201905081810360008301526119b28161154d565b9050919050565b600060208201905081810360008301526119d2816115b3565b9050919050565b600060208201905081810360008301526119f2816115f3565b9050919050565b60006020820190508181036000830152611a1281611659565b9050919050565b60006020820190508181036000830152611a32816116bf565b9050919050565b60006020820190508181036000830152611a5281611725565b9050919050565b6000602082019050611a6e600083018461178b565b92915050565b6000602082019050611a89600083018461179a565b92915050565b600081519050919050565b600082825260208201905092915050565b600081905092915050565b6000611ac182611b88565b9150611acc83611b88565b9250827fffffffffffffffffffffffffffffffffffffffffffffffffffffffffffffffff03821115611b0157611b00611c20565b5b828201905092915050565b6000611b1782611b88565b9150611b2283611b88565b925082821015611b3557611b34611c20565b5b828203905092915050565b6000611b4b82611b68565b9050919050565b60008115159050919050565b6000819050919050565b600073ffffffffffffffffffffffffffffffffffffffff82169050919050565b6000819050919050565b600060ff82169050919050565b6000611baa82611b92565b9050919050565b60005b83811015611bcf578082015181840152602081019050611bb4565b83811115611bde576000848401525b50505050565b60006002820490506001821680611bfc57607f821691505b60208210811415611c1057611c0f611c4f565b5b50919050565b6000819050919050565b7f4e487b7100000000000000000000000000000000000000000000000000000000600052601160045260246000fd5b7f4e487b7100000000000000000000000000000000000000000000000000000000600052602260045260246000fd5b6000601f19601f8301169050919050565b611c9881611b40565b8114611ca357600080fd5b50565b611caf81611b5e565b8114611cba57600080fd5b50565b611cc681611b88565b8114611cd157600080fd5b50565b611cdd81611b92565b8114611ce857600080fd5b5056fea26469706673582212200f629d14dda6ccabef326057b9621f261d0f54ac0b8508851ca1d7f1d796773364736f6c63430008000033",
  "immutableReferences": {
    "18": [
      {
        "length": 32,
        "start": 1262
      },
      {
        "length": 32,
        "start": 1917
      }
    ],
    "23": [
      {
        "length": 32,
        "start": 1217
      },
      {
        "length": 32,
        "start": 1831
      }
    ]
  },
  "source": "// SPDX-License-Identifier: SimPL-2.0\npragma solidity ^0.8.0;\n\nimport \"./interface/IERC2612.sol\";\nimport \"./ERC2612.sol\";\ncontract Secret is ERC2612 {\n  //\n  constructor () ERC2612(\"SecretCoin\", \"SecretCoin\") {\n    _mint(msg.sender, 100000e18);\n  }\n  //\n  function burn(uint256 amount) public {\n    _burn(msg.sender, amount);\n  }\n}",
  "sourcePath": "C:\\Users\\xli230\\Downloads\\18680235_HOIpXdZzNpwLeNNXRZICBSEEH\\ipfs_image_uploader-master\\contracts\\Secret.sol",
  "compiler": {
    "name": "solc",
    "version": "0.8.0+commit.c7dfd78e.Emscripten.clang"
  },
  "schemaVersion": "3.4.6",
  "updatedAt": "2022-11-16T03:54:02.339Z",
  "networkType": "ethereum",
  "devdoc": {
    "kind": "dev",
    "methods": {
      "allowance(address,address)": {
        "details": "See {IERC20-allowance}."
      },
      "approve(address,uint256)": {
        "details": "See {IERC20-approve}. NOTE: If `amount` is the maximum `uint256`, the allowance is not updated on `transferFrom`. This is semantically equivalent to an infinite approval. Requirements: - `spender` cannot be the zero address."
      },
      "balanceOf(address)": {
        "details": "See {IERC20-balanceOf}."
      },
      "decimals()": {
        "details": "Returns the number of decimals used to get its user representation. For example, if `decimals` equals `2`, a balance of `505` tokens should be displayed to a user as `5.05` (`505 / 10 ** 2`). Tokens usually opt for a value of 18, imitating the relationship between Ether and Wei. This is the value {ERC20} uses, unless this function is overridden; NOTE: This information is only used for _display_ purposes: it in no way affects any of the arithmetic of the contract, including {IERC20-balanceOf} and {IERC20-transfer}."
      },
      "decreaseAllowance(address,uint256)": {
        "details": "Atomically decreases the allowance granted to `spender` by the caller. This is an alternative to {approve} that can be used as a mitigation for problems described in {IERC20-approve}. Emits an {Approval} event indicating the updated allowance. Requirements: - `spender` cannot be the zero address. - `spender` must have allowance for the caller of at least `subtractedValue`."
      },
      "increaseAllowance(address,uint256)": {
        "details": "Atomically increases the allowance granted to `spender` by the caller. This is an alternative to {approve} that can be used as a mitigation for problems described in {IERC20-approve}. Emits an {Approval} event indicating the updated allowance. Requirements: - `spender` cannot be the zero address."
      },
      "name()": {
        "details": "Returns the name of the token."
      },
      "permit(address,address,uint256,uint256,uint8,bytes32,bytes32)": {
        "details": "See {IERC2612-permit}."
      },
      "symbol()": {
        "details": "Returns the symbol of the token, usually a shorter version of the name."
      },
      "totalSupply()": {
        "details": "See {IERC20-totalSupply}."
      },
      "transfer(address,uint256)": {
        "details": "See {IERC20-transfer}. Requirements: - `to` cannot be the zero address. - the caller must have a balance of at least `amount`."
      },
      "transferFrom(address,address,uint256)": {
        "details": "See {IERC20-transferFrom}. Emits an {Approval} event indicating the updated allowance. This is not required by the EIP. See the note at the beginning of {ERC20}. NOTE: Does not update the allowance if the current allowance is the maximum `uint256`. Requirements: - `from` and `to` cannot be the zero address. - `from` must have a balance of at least `amount`. - the caller must have allowance for ``from``'s tokens of at least `amount`."
      }
    },
    "version": 1
  },
  "userdoc": {
    "kind": "user",
    "methods": {},
    "version": 1
  }
}