{
  "contractName": "strings",
  "abi": [
    {
      "inputs": [
        {
          "internalType": "bytes",
          "name": "data",
          "type": "bytes"
        }
      ],
      "name": "toString",
      "outputs": [
        {
          "internalType": "string",
          "name": "",
          "type": "string"
        }
      ],
      "stateMutability": "pure",
      "type": "function"
    }
  ],
  "bytecode": "0x610825610053600b82828239805160001a607314610046577f4e487b7100000000000000000000000000000000000000000000000000000000600052600060045260246000fd5b30600052607381538281f3fe73000000000000000000000000000000000000000030146080604052600436106100355760003560e01c806371aad10d1461003a575b600080fd5b610054600480360381019061004f9190610522565b61006a565b604051610061919061059c565b60405180910390f35b606060006040518060400160405280601081526020017f303132333435363738396162636465660000000000000000000000000000000081525090506000600284516100b69190610691565b60026100c2919061063b565b67ffffffffffffffff811115610101577f4e487b7100000000000000000000000000000000000000000000000000000000600052604160045260246000fd5b6040519080825280601f01601f1916602001820160405280156101335781602001600182028036833780820191505090505b5090507f300000000000000000000000000000000000000000000000000000000000000081600081518110610191577f4e487b7100000000000000000000000000000000000000000000000000000000600052603260045260246000fd5b60200101907effffffffffffffffffffffffffffffffffffffffffffffffffffffffffffff1916908160001a9053507f78000000000000000000000000000000000000000000000000000000000000008160018151811061021b577f4e487b7100000000000000000000000000000000000000000000000000000000600052603260045260246000fd5b60200101907effffffffffffffffffffffffffffffffffffffffffffffffffffffffffffff1916908160001a90535060005b84518110156104af57826004868381518110610292577f4e487b7100000000000000000000000000000000000000000000000000000000600052603260045260246000fd5b602001015160f81c60f81b7effffffffffffffffffffffffffffffffffffffffffffffffffffffffffffff1916901c60f81c60ff16815181106102fe577f4e487b7100000000000000000000000000000000000000000000000000000000600052603260045260246000fd5b602001015160f81c60f81b826002836103179190610691565b6002610323919061063b565b8151811061035a577f4e487b7100000000000000000000000000000000000000000000000000000000600052603260045260246000fd5b60200101907effffffffffffffffffffffffffffffffffffffffffffffffffffffffffffff1916908160001a90535082600f60f81b8683815181106103c8577f4e487b7100000000000000000000000000000000000000000000000000000000600052603260045260246000fd5b602001015160f81c60f81b1660f81c60ff1681518110610411577f4e487b7100000000000000000000000000000000000000000000000000000000600052603260045260246000fd5b602001015160f81c60f81b8260028361042a9190610691565b6003610436919061063b565b8151811061046d577f4e487b7100000000000000000000000000000000000000000000000000000000600052603260045260246000fd5b60200101907effffffffffffffffffffffffffffffffffffffffffffffffffffffffffffff1916908160001a90535080806104a790610737565b91505061024d565b508092505050919050565b60006104cd6104c8846105ef565b6105be565b9050828152602081018484840111156104e557600080fd5b6104f08482856106f5565b509392505050565b600082601f83011261050957600080fd5b81356105198482602086016104ba565b91505092915050565b60006020828403121561053457600080fd5b600082013567ffffffffffffffff81111561054e57600080fd5b61055a848285016104f8565b91505092915050565b600061056e8261061f565b610578818561062a565b9350610588818560208601610704565b610591816107de565b840191505092915050565b600060208201905081810360008301526105b68184610563565b905092915050565b6000604051905081810181811067ffffffffffffffff821117156105e5576105e46107af565b5b8060405250919050565b600067ffffffffffffffff82111561060a576106096107af565b5b601f19601f8301169050602081019050919050565b600081519050919050565b600082825260208201905092915050565b6000610646826106eb565b9150610651836106eb565b9250827fffffffffffffffffffffffffffffffffffffffffffffffffffffffffffffffff0382111561068657610685610780565b5b828201905092915050565b600061069c826106eb565b91506106a7836106eb565b9250817fffffffffffffffffffffffffffffffffffffffffffffffffffffffffffffffff04831182151516156106e0576106df610780565b5b828202905092915050565b6000819050919050565b82818337600083830152505050565b60005b83811015610722578082015181840152602081019050610707565b83811115610731576000848401525b50505050565b6000610742826106eb565b91507fffffffffffffffffffffffffffffffffffffffffffffffffffffffffffffffff82141561077557610774610780565b5b600182019050919050565b7f4e487b7100000000000000000000000000000000000000000000000000000000600052601160045260246000fd5b7f4e487b7100000000000000000000000000000000000000000000000000000000600052604160045260246000fd5b6000601f19601f830116905091905056fea26469706673582212209944389a9e6325e015be27bf0b22be5e1f870d943832c0955463803ea45c52e364736f6c63430008000033",
  "immutableReferences": {},
  "source": "// SPDX-License-Identifier: SimPL-2.0\npragma solidity ^0.8.0;\n\nlibrary strings {\n    function isEqual(string memory a, string memory b)\n        internal\n        pure\n        returns (bool)\n    {\n        //hash\n        // hash(a) != hash(b), a != b\n        bytes32 hashA = keccak256(abi.encode(a));\n        bytes32 hashB = keccak256(abi.encode(b));\n        return uint256(hashA) == uint256(hashB);\n    }\n\n    function toString(bytes memory data) public pure returns (string memory) {\n        bytes memory alphabet = \"0123456789abcdef\";\n\n        bytes memory str = new bytes(2 + data.length * 2);\n        str[0] = \"0\";\n        str[1] = \"x\";\n        for (uint256 i = 0; i < data.length; i++) {\n            str[2 + i * 2] = alphabet[uint256(uint8(data[i] >> 4))];\n            str[3 + i * 2] = alphabet[uint256(uint8(data[i] & 0x0f))];\n        }\n        return string(str);\n    }\n\n    function strConcat(string memory _a, string memory _b)\n        internal\n        pure returns (string memory)\n    {\n        bytes memory _ba = bytes(_a);\n        bytes memory _bb = bytes(_b);\n        string memory ret = new string(_ba.length + _bb.length);\n        bytes memory bret = bytes(ret);\n        uint256 k = 0;\n        for (uint256 i = 0; i < _ba.length; i++) bret[k++] = _ba[i];\n        for (uint256 i = 0; i < _bb.length; i++) bret[k++] = _bb[i];\n        return string(ret);\n    }\n}\n",
  "sourcePath": "C:\\Users\\xli230\\Downloads\\18680235_HOIpXdZzNpwLeNNXRZICBSEEH\\ipfs_image_uploader-master\\contracts\\Strings.sol",
  "compiler": {
    "name": "solc",
    "version": "0.8.0+commit.c7dfd78e.Emscripten.clang"
  },
  "schemaVersion": "3.4.6",
  "updatedAt": "2022-11-16T03:53:56.312Z",
  "devdoc": {
    "kind": "dev",
    "methods": {},
    "version": 1
  },
  "userdoc": {
    "kind": "user",
    "methods": {},
    "version": 1
  }
}