{
  "contractName": "TokenReward",
  "abi": [
    {
      "inputs": [
        {
          "internalType": "address",
          "name": "_token",
          "type": "address"
        }
      ],
      "stateMutability": "nonpayable",
      "type": "constructor"
    },
    {
      "inputs": [
        {
          "internalType": "address",
          "name": "owener",
          "type": "address"
        },
        {
          "internalType": "address",
          "name": "spender",
          "type": "address"
        },
        {
          "internalType": "uint256",
          "name": "amount",
          "type": "uint256"
        },
        {
          "internalType": "uint256",
          "name": "deadline",
          "type": "uint256"
        },
        {
          "internalType": "uint8",
          "name": "v",
          "type": "uint8"
        },
        {
          "internalType": "bytes32",
          "name": "r",
          "type": "bytes32"
        },
        {
          "internalType": "bytes32",
          "name": "s",
          "type": "bytes32"
        }
      ],
      "name": "permitReward",
      "outputs": [],
      "stateMutability": "nonpayable",
      "type": "function"
    },
    {
      "inputs": [
        {
          "internalType": "address",
          "name": "owener",
          "type": "address"
        },
        {
          "internalType": "address",
          "name": "secretaccount",
          "type": "address"
        },
        {
          "internalType": "uint256",
          "name": "amount",
          "type": "uint256"
        }
      ],
      "name": "secretThansferFrom",
      "outputs": [],
      "stateMutability": "nonpayable",
      "type": "function"
    }
  ],
  "bytecode": "0x60a060405234801561001057600080fd5b5060405161090938038061090983398181016040528101906100329190610084565b8073ffffffffffffffffffffffffffffffffffffffff1660808173ffffffffffffffffffffffffffffffffffffffff1660601b81525050506100f6565b60008151905061007e816100df565b92915050565b60006020828403121561009657600080fd5b60006100a48482850161006f565b91505092915050565b60006100b8826100bf565b9050919050565b600073ffffffffffffffffffffffffffffffffffffffff82169050919050565b6100e8816100ad565b81146100f357600080fd5b50565b60805160601c6107e16101286000396000818160750152818161010c0152818161020301526102ef01526107e16000f3fe608060405234801561001057600080fd5b50600436106100365760003560e01c8063a2b082b21461003b578063ab2d3d0214610057575b600080fd5b61005560048036038101906100509190610496565b610073565b005b610071600480360381019061006c9190610447565b610201565b005b7f000000000000000000000000000000000000000000000000000000000000000073ffffffffffffffffffffffffffffffffffffffff1663d505accf883088888888886040518863ffffffff1660e01b81526004016100d89796959493929190610610565b600060405180830381600087803b1580156100f257600080fd5b505af1158015610106573d6000803e3d6000fd5b505050507f000000000000000000000000000000000000000000000000000000000000000073ffffffffffffffffffffffffffffffffffffffff166323b872dd8888886040518463ffffffff1660e01b8152600401610167939291906105d9565b602060405180830381600087803b15801561018157600080fd5b505af1158015610195573d6000803e3d6000fd5b505050506040513d601f19601f820116820180604052508101906101b99190610534565b6101f8576040517f08c379a00000000000000000000000000000000000000000000000000000000081526004016101ef906106a8565b60405180910390fd5b50505050505050565b7f000000000000000000000000000000000000000000000000000000000000000073ffffffffffffffffffffffffffffffffffffffff1663a9059cbb83836040518363ffffffff1660e01b815260040161025c92919061067f565b602060405180830381600087803b15801561027657600080fd5b505af115801561028a573d6000803e3d6000fd5b505050506040513d601f19601f820116820180604052508101906102ae9190610534565b6102ed576040517f08c379a00000000000000000000000000000000000000000000000000000000081526004016102e4906106a8565b60405180910390fd5b7f000000000000000000000000000000000000000000000000000000000000000073ffffffffffffffffffffffffffffffffffffffff1663a9059cbb84836040518363ffffffff1660e01b815260040161034892919061067f565b602060405180830381600087803b15801561036257600080fd5b505af1158015610376573d6000803e3d6000fd5b505050506040513d601f19601f8201168201806040525081019061039a9190610534565b6103d9576040517f08c379a00000000000000000000000000000000000000000000000000000000081526004016103d0906106a8565b60405180910390fd5b505050565b6000813590506103ed81610738565b92915050565b6000815190506104028161074f565b92915050565b60008135905061041781610766565b92915050565b60008135905061042c8161077d565b92915050565b60008135905061044181610794565b92915050565b60008060006060848603121561045c57600080fd5b600061046a868287016103de565b935050602061047b868287016103de565b925050604061048c8682870161041d565b9150509250925092565b600080600080600080600060e0888a0312156104b157600080fd5b60006104bf8a828b016103de565b97505060206104d08a828b016103de565b96505060406104e18a828b0161041d565b95505060606104f28a828b0161041d565b94505060806105038a828b01610432565b93505060a06105148a828b01610408565b92505060c06105258a828b01610408565b91505092959891949750929550565b60006020828403121561054657600080fd5b6000610554848285016103f3565b91505092915050565b610566816106d9565b82525050565b610575816106f7565b82525050565b60006105886013836106c8565b91507f5472616e736665722066726f6d206572726f72000000000000000000000000006000830152602082019050919050565b6105c481610721565b82525050565b6105d38161072b565b82525050565b60006060820190506105ee600083018661055d565b6105fb602083018561055d565b61060860408301846105bb565b949350505050565b600060e082019050610625600083018a61055d565b610632602083018961055d565b61063f60408301886105bb565b61064c60608301876105bb565b61065960808301866105ca565b61066660a083018561056c565b61067360c083018461056c565b98975050505050505050565b6000604082019050610694600083018561055d565b6106a160208301846105bb565b9392505050565b600060208201905081810360008301526106c18161057b565b9050919050565b600082825260208201905092915050565b60006106e482610701565b9050919050565b60008115159050919050565b6000819050919050565b600073ffffffffffffffffffffffffffffffffffffffff82169050919050565b6000819050919050565b600060ff82169050919050565b610741816106d9565b811461074c57600080fd5b50565b610758816106eb565b811461076357600080fd5b50565b61076f816106f7565b811461077a57600080fd5b50565b61078681610721565b811461079157600080fd5b50565b61079d8161072b565b81146107a857600080fd5b5056fea26469706673582212207ab0f67cbdc9a2aec5a6152f50c545823c12347610a96bf84c4fce10a0d63fdc64736f6c63430008000033",
  "immutableReferences": {
    "498": [
      {
        "length": 32,
        "start": 117
      },
      {
        "length": 32,
        "start": 268
      },
      {
        "length": 32,
        "start": 515
      },
      {
        "length": 32,
        "start": 751
      }
    ]
  },
  "source": "// SPDX-License-Identifier: SimPL-2.0\npragma solidity ^0.8.0;\n\nimport './interface/IERC2612.sol';\nimport \"../node_modules/@openzeppelin/contracts/token/ERC20/IERC20.sol\";\n\ncontract TokenReward {\n\n  address private immutable token;\n \n  constructor(address _token) {\n    token = _token;\n  }\n\n  function permitReward(address owener,address spender, uint amount, uint deadline, uint8 v, bytes32 r, bytes32 s) external {\n    IERC2612(token).permit(owener, address(this), amount, deadline, v, r, s);\n    require(IERC20(token).transferFrom(owener,spender, amount), \"Transfer from error\");\n  }\n  \n  function secretThansferFrom(address owener,address secretaccount,uint amount) external {\n    require(IERC20(token).transfer(secretaccount, amount), \"Transfer from error\");\n    require(IERC20(token).transfer(owener, amount), \"Transfer from error\");\n  }\n}",
  "sourcePath": "C:\\Users\\xli230\\Downloads\\18680235_HOIpXdZzNpwLeNNXRZICBSEEH\\ipfs_image_uploader-master\\contracts\\TokenReward.sol",
  "compiler": {
    "name": "solc",
    "version": "0.8.0+commit.c7dfd78e.Emscripten.clang"
  },
  "schemaVersion": "3.4.6",
  "updatedAt": "2022-11-16T03:54:02.359Z",
  "networkType": "ethereum",
  "devdoc": {
    "kind": "dev",
    "methods": {},
    "version": 1
  },
  "userdoc": {
    "kind": "user",
    "methods": {},
    "version": 1
  }
}